:1000000012C021C020C020C01EC01DC01CC01BC00B
:100010001AC032C018C017C016C015C014C013C013
:1000200012C011C010C011241FBECFE5D4E0DEBF46
:10003000CDBF11E0A0E6B0E001C01D92A536B1072A
:10004000E1F734D0ECC0DCCF1F920F920FB60F92C5
:1000500011248F9314BC80916100882339F0C19BD7
:1000600003C0C29AC19802C0C19AC2988F910F90E2
:100070000FBE0F901F9018951F920F920FB60F9200
:1000800011248F939F938CB59DB5909363018093BA
:1000900062011DBC1CBC12BE81E0809364019F9173
:1000A0008F910F900FBE0F901F901895CF93DF93F5
:1000B000BA9AC29A889A8D9A8C9883B7876083BFC0
:1000C00089B7816089BF1FBC81E08EBD1DBC1CBC8F
:1000D00084E683BD1092610085B5876085BD80EDA3
:1000E00097E02AE431E0F9013197F1F70197D9F768
:1000F000959A80ED97E02AE431E0F9013197F1F724
:100100000197D9F7789440E050E001C0AB0120E0BE
:1001100030E09098809164018823D9F3909A60919F
:1001200062017091630110926401CA01861B970BF2
:10013000EFEF843F9E0754F30D9744F72F5F3F4F37
:100140002531310530F3EA01909A10926000E2E621
:10015000F0E04193519371E0E236F707D1F79598BB
:1001600080ED97E02AE431E0F9013197F1F701974A
:10017000D9F7959A80ED97E02AE431E0F9013197BB
:10018000F1F70197D9F760E0809164018823E1F3EA
:10019000909A959A209162013091630110926401C6
:1001A0004217530738F4C901841B950B0D9740F093
:1001B000909805C0CA01821B930B0D9708F0959883
:1001C000CE01821B930BEFEF893D9E07ECF28897DF
:1001D000DCF667FD60E0E62FF0E0EE0FFF1FEE5962
:1001E000FF4F318320836F5FE2E6F0E020E030E0F4
:1001F00040E050E081919191A0E0B0E0280F391FDC
:100200004A1F5B1F71E0E236F707A1F787E05695BA
:100210004795379527958A95D1F7A901B5CFF894D9
:02022000FFCF0E
:00000001FF
